{
    "contractName": "AssetT",
    "abi": [
        {
            "anonymous": false,
            "inputs": [
                {
                    "indexed": true,
                    "internalType": "address",
                    "name": "isuser",
                    "type": "address"
                },
                {
                    "indexed": false,
                    "internalType": "string",
                    "name": "IPFS",
                    "type": "string"
                }
            ],
            "name": "PropertyRegister",
            "type": "event"
        },
        {
            "anonymous": false,
            "inputs": [
                {
                    "indexed": true,
                    "internalType": "address",
                    "name": "isuser",
                    "type": "address"
                },
                {
                    "indexed": false,
                    "internalType": "string",
                    "name": "id",
                    "type": "string"
                }
            ],
            "name": "UserRegistered",
            "type": "event"
        },
        {
            "anonymous": false,
            "inputs": [
                {
                    "indexed": true,
                    "internalType": "uint256",
                    "name": "property",
                    "type": "uint256"
                },
                {
                    "indexed": true,
                    "internalType": "address",
                    "name": "user",
                    "type": "address"
                },
                {
                    "indexed": true,
                    "internalType": "string",
                    "name": "document",
                    "type": "string"
                }
            ],
            "name": "propertyIssued",
            "type": "event"
        },
        {
            "inputs": [
                {
                    "internalType": "string",
                    "name": "_uuid",
                    "type": "string"
                },
                {
                    "internalType": "string",
                    "name": "_img_uid",
                    "type": "string"
                },
                {
                    "internalType": "string",
                    "name": "_name",
                    "type": "string"
                },
                {
                    "internalType": "uint256",
                    "name": "_value",
                    "type": "uint256"
                }
            ],
            "name": "emitRegisterProperty",
            "outputs": [],
            "stateMutability": "nonpayable",
            "type": "function"
        },
        {
            "inputs": [
                {
                    "internalType": "uint256",
                    "name": "_id",
                    "type": "uint256"
                }
            ],
            "name": "getIdProperty",
            "outputs": [
                {
                    "components": [
                        {
                            "internalType": "address",
                            "name": "user",
                            "type": "address"
                        },
                        {
                            "internalType": "bool",
                            "name": "visible",
                            "type": "bool"
                        },
                        {
                            "internalType": "uint256",
                            "name": "price",
                            "type": "uint256"
                        },
                        {
                            "internalType": "string",
                            "name": "ipfs_hash",
                            "type": "string"
                        },
                        {
                            "internalType": "string",
                            "name": "name",
                            "type": "string"
                        },
                        {
                            "internalType": "string",
                            "name": "document_hash",
                            "type": "string"
                        }
                    ],
                    "internalType": "struct AssetT.Property",
                    "name": "",
                    "type": "tuple"
                }
            ],
            "stateMutability": "view",
            "type": "function"
        },
        {
            "inputs": [],
            "name": "getProperty",
            "outputs": [
                {
                    "internalType": "uint256[]",
                    "name": "",
                    "type": "uint256[]"
                }
            ],
            "stateMutability": "view",
            "type": "function"
        },
        {
            "inputs": [],
            "name": "getUser",
            "outputs": [
                {
                    "internalType": "string",
                    "name": "",
                    "type": "string"
                }
            ],
            "stateMutability": "view",
            "type": "function"
        },
        {
            "inputs": [
                {
                    "internalType": "uint256",
                    "name": "_id",
                    "type": "uint256"
                },
                {
                    "internalType": "uint256",
                    "name": "_newPrice",
                    "type": "uint256"
                }
            ],
            "name": "onUpdatePrice",
            "outputs": [],
            "stateMutability": "nonpayable",
            "type": "function"
        },
        {
            "inputs": [
                {
                    "internalType": "bool",
                    "name": "_visible",
                    "type": "bool"
                },
                {
                    "internalType": "uint256",
                    "name": "_id",
                    "type": "uint256"
                }
            ],
            "name": "onVisible",
            "outputs": [],
            "stateMutability": "nonpayable",
            "type": "function"
        },
        {
            "inputs": [
                {
                    "internalType": "uint256",
                    "name": "_id",
                    "type": "uint256"
                },
                {
                    "internalType": "string",
                    "name": "_newipfs",
                    "type": "string"
                }
            ],
            "name": "payProperty",
            "outputs": [],
            "stateMutability": "payable",
            "type": "function"
        },
        {
            "inputs": [
                {
                    "internalType": "string",
                    "name": "_user",
                    "type": "string"
                }
            ],
            "name": "registerUser",
            "outputs": [],
            "stateMutability": "nonpayable",
            "type": "function"
        }
    ],
    "bytecode": "608060405234801561001057600080fd5b506114e3806100206000396000f3fe60806040526004361061007b5760003560e01c80638aa130e31161004e5780638aa130e31461010f57806392845a6c1461012f578063b6446fd31461014f578063c6b48f971461017c57600080fd5b8063077510701461008057806360673857146100ab578063704f1b94146100cd578063832880e7146100ed575b600080fd5b34801561008c57600080fd5b5061009561018f565b6040516100a2919061107a565b60405180910390f35b3480156100b757600080fd5b506100cb6100c6366004611161565b6101f0565b005b3480156100d957600080fd5b506100cb6100e83660046111f1565b6103a2565b3480156100f957600080fd5b50610102610478565b6040516100a2919061128a565b34801561011b57600080fd5b506100cb61012a3660046112a4565b610510565b34801561013b57600080fd5b506100cb61014a3660046112c6565b61082a565b34801561015b57600080fd5b5061016f61016a3660046112f7565b610b42565b6040516100a29190611310565b6100cb61018a366004611399565b610d8e565b336000908152600660209081526040918290208054835181840281018401909452808452606093928301828280156101e657602002820191906000526020600020905b8154815260200190600101908083116101d2575b5050505050905090565b3360009081526003602052604090205460ff1615156001146102525760405162461bcd60e51b815260206004820152601660248201527545737465207573756172696f206e6f2065786973746560501b60448201526064015b60405180910390fd5b61025a610fa0565b6000806000815461026a906113e0565b9182905550338352600060208085018281526040808701888152606088018b8152608089018b905260a089018d905286865260058552919094208751815493511515600160a01b026001600160a81b03199094166001600160a01b039190911617929092178255925160018201559151805193945085936102f19260028501920190610fe1565b506080820151805161030d916003840191602090910190610fe1565b5060a08201518051610329916004840191602090910190610fe1565b505050600081815260046020908152604080832080546001600160a01b031916339081179091558352600682528083208054600181018255908452919092200182905551610378908790611409565b604051908190038120903390839060008051602061148e83398151915290600090a4505050505050565b3360009081526003602052604090205460ff16156104025760405162461bcd60e51b815260206004820152601f60248201527f45737465207573756172696f2079612065737461207265676973747261646f006044820152606401610249565b336000908152600260209081526040909120825161042292840190610fe1565b503360008181526003602052604090819020805460ff19166001179055517f48cac28ad4dc618e15f4c2dd5e97751182f166de97b25618318b2112aa951a2f9061046d90849061128a565b60405180910390a250565b33600090815260026020526040902080546060919061049690611425565b80601f01602080910402602001604051908101604052809291908181526020018280546104c290611425565b80156101e65780601f106104e4576101008083540402835291602001916101e6565b820191906000526020600020905b8154815290600101906020018083116104f257509395945050505050565b6000828152600460205260409020546001600160a01b03163381146105475760405162461bcd60e51b81526004016102499061145a565b6000838152600560209081526040808320815160c08101835281546001600160a01b0381168252600160a01b900460ff161515938101939093526001810154918301919091526002810180546060840191906105a290611425565b80601f01602080910402602001604051908101604052809291908181526020018280546105ce90611425565b801561061b5780601f106105f05761010080835404028352916020019161061b565b820191906000526020600020905b8154815290600101906020018083116105fe57829003601f168201915b5050505050815260200160038201805461063490611425565b80601f016020809104026020016040519081016040528092919081815260200182805461066090611425565b80156106ad5780601f10610682576101008083540402835291602001916106ad565b820191906000526020600020905b81548152906001019060200180831161069057829003601f168201915b505050505081526020016004820180546106c690611425565b80601f01602080910402602001604051908101604052809291908181526020018280546106f290611425565b801561073f5780601f106107145761010080835404028352916020019161073f565b820191906000526020600020905b81548152906001019060200180831161072257829003601f168201915b50505091909252505050604080820185815260008781526005602090815292902083518154848601511515600160a01b026001600160a81b03199091166001600160a01b03909216919091171781559051600182015560608301518051939450849391926107b592600285019290910190610fe1565b50608082015180516107d1916003840191602090910190610fe1565b5060a082015180516107ed916004840191602090910190610fe1565b50505060a08101516040516108029190611409565b604051908190038120903390869060008051602061148e83398151915290600090a450505050565b6000818152600460205260409020546001600160a01b03163381146108615760405162461bcd60e51b81526004016102499061145a565b6000828152600560209081526040808320815160c08101835281546001600160a01b0381168252600160a01b900460ff161515938101939093526001810154918301919091526002810180546060840191906108bc90611425565b80601f01602080910402602001604051908101604052809291908181526020018280546108e890611425565b80156109355780601f1061090a57610100808354040283529160200191610935565b820191906000526020600020905b81548152906001019060200180831161091857829003601f168201915b5050505050815260200160038201805461094e90611425565b80601f016020809104026020016040519081016040528092919081815260200182805461097a90611425565b80156109c75780601f1061099c576101008083540402835291602001916109c7565b820191906000526020600020905b8154815290600101906020018083116109aa57829003601f168201915b505050505081526020016004820180546109e090611425565b80601f0160208091040260200160405190810160405280929190818152602001828054610a0c90611425565b8015610a595780601f10610a2e57610100808354040283529160200191610a59565b820191906000526020600020905b815481529060010190602001808311610a3c57829003601f168201915b5050509190925250505084151560208083019182526000868152600582526040908190208451815494511515600160a01b026001600160a81b03199095166001600160a01b03909116179390931783558301516001830155606083015180519394508493610acd9260028501920190610fe1565b5060808201518051610ae9916003840191602090910190610fe1565b5060a08201518051610b05916004840191602090910190610fe1565b50505060a0810151604051610b1a9190611409565b604051908190038120903390859060008051602061148e83398151915290600090a450505050565b610b4a610fa0565b6000828152600460205260409020546001600160a01b0316338114610b815760405162461bcd60e51b81526004016102499061145a565b6000838152600560209081526040808320815160c08101835281546001600160a01b0381168252600160a01b900460ff16151593810193909352600181015491830191909152600281018054606084019190610bdc90611425565b80601f0160208091040260200160405190810160405280929190818152602001828054610c0890611425565b8015610c555780601f10610c2a57610100808354040283529160200191610c55565b820191906000526020600020905b815481529060010190602001808311610c3857829003601f168201915b50505050508152602001600382018054610c6e90611425565b80601f0160208091040260200160405190810160405280929190818152602001828054610c9a90611425565b8015610ce75780601f10610cbc57610100808354040283529160200191610ce7565b820191906000526020600020905b815481529060010190602001808311610cca57829003601f168201915b50505050508152602001600482018054610d0090611425565b80601f0160208091040260200160405190810160405280929190818152602001828054610d2c90611425565b8015610d795780601f10610d4e57610100808354040283529160200191610d79565b820191906000526020600020905b815481529060010190602001808311610d5c57829003601f168201915b50505091909252509194505050505b50919050565b6000828152600460205260409020546001600160a01b0316338114610dc55760405162461bcd60e51b81526004016102499061145a565b6000838152600460205260408120546001600160a01b031690610de785610b42565b6001600160a01b038316600090815260066020908152604080832080548251818502810185019093528083529495509293909291830182828015610e4a57602002820191906000526020600020905b815481526020019060010190808311610e36575b505033865250506000602080860182815260a087018a90528a8352600582526040928390208751815492511515600160a01b026001600160a81b03199093166001600160a01b039190911617919091178155918601516001830155606086015180519495508694929350610ec79260028501929190910190610fe1565b5060808201518051610ee3916003840191602090910190610fe1565b5060a08201518051610eff916004840191602090910190610fe1565b509050506000818781518110610f1757610f17611477565b602090810291909101810191909152600087815260048252604080822080546001600160a01b0319163390811790915582526006835280822080546001810182559083529290912090910187905560a08301519051610f769190611409565b604051908190038120903390889060008051602061148e83398151915290600090a4505050505050565b6040518060c0016040528060006001600160a01b03168152602001600015158152602001600081526020016060815260200160608152602001606081525090565b828054610fed90611425565b90600052602060002090601f01602090048101928261100f5760008555611055565b82601f1061102857805160ff1916838001178555611055565b82800160010185558215611055579182015b8281111561105557825182559160200191906001019061103a565b50611061929150611065565b5090565b5b808211156110615760008155600101611066565b6020808252825182820181905260009190848201906040850190845b818110156110b257835183529284019291840191600101611096565b50909695505050505050565b634e487b7160e01b600052604160045260246000fd5b600082601f8301126110e557600080fd5b813567ffffffffffffffff80821115611100576111006110be565b604051601f8301601f19908116603f01168101908282118183101715611128576111286110be565b8160405283815286602085880101111561114157600080fd5b836020870160208301376000602085830101528094505050505092915050565b6000806000806080858703121561117757600080fd5b843567ffffffffffffffff8082111561118f57600080fd5b61119b888389016110d4565b955060208701359150808211156111b157600080fd5b6111bd888389016110d4565b945060408701359150808211156111d357600080fd5b506111e0878288016110d4565b949793965093946060013593505050565b60006020828403121561120357600080fd5b813567ffffffffffffffff81111561121a57600080fd5b611226848285016110d4565b949350505050565b60005b83811015611249578181015183820152602001611231565b83811115611258576000848401525b50505050565b6000815180845261127681602086016020860161122e565b601f01601f19169290920160200192915050565b60208152600061129d602083018461125e565b9392505050565b600080604083850312156112b757600080fd5b50508035926020909101359150565b600080604083850312156112d957600080fd5b823580151581146112e957600080fd5b946020939093013593505050565b60006020828403121561130957600080fd5b5035919050565b6020815260018060a01b038251166020820152602082015115156040820152604082015160608201526000606083015160c0608084015261135460e084018261125e565b90506080840151601f19808584030160a0860152611372838361125e565b925060a08601519150808584030160c086015250611390828261125e565b95945050505050565b600080604083850312156113ac57600080fd5b82359150602083013567ffffffffffffffff8111156113ca57600080fd5b6113d6858286016110d4565b9150509250929050565b600060001982141561140257634e487b7160e01b600052601160045260246000fd5b5060010190565b6000825161141b81846020870161122e565b9190910192915050565b600181811c9082168061143957607f821691505b60208210811415610d8857634e487b7160e01b600052602260045260246000fd5b60208082526003908201526234303360e81b604082015260600190565b634e487b7160e01b600052603260045260246000fdfe9fc2dd3f43c9995b116d986916a402a064d24b251b8873da4513e5f74a6db17fa2646970667358221220d083d6674a5bf6d378d773a855f3cc38dbbca79352a8febf428d6bb4ee386c5464736f6c634300080a0033",
    "sourcePath": "/home/isaid/proyectos/blockchain-developer-bootcamp-final-project/contracts/AssetT.sol",
    "compiler": {
        "name": "solc",
        "version": "0.8.10+commit.fc410830"
    },
    "functionHashes": {
        "emitRegisterProperty(string,string,string,uint256)": "60673857",
        "getIdProperty(uint256)": "b6446fd3",
        "getProperty()": "07751070",
        "getUser()": "832880e7",
        "onUpdatePrice(uint256,uint256)": "8aa130e3",
        "onVisible(bool,uint256)": "92845a6c",
        "payProperty(uint256,string)": "c6b48f97",
        "registerUser(string)": "704f1b94"
    },
    "gasEstimates": {
        "creation": {
            "codeDepositCost": "1069400",
            "executionCost": "1114",
            "totalCost": "1070514"
        },
        "external": {
            "emitRegisterProperty(string,string,string,uint256)": "infinite",
            "getIdProperty(uint256)": "infinite",
            "getProperty()": "infinite",
            "getUser()": "infinite",
            "onUpdatePrice(uint256,uint256)": "infinite",
            "onVisible(bool,uint256)": "infinite",
            "payProperty(uint256,string)": "infinite",
            "registerUser(string)": "infinite"
        }
    }
}