{
  "contractName": "AssetT",
  "abi": [
    {
      "anonymous": false,
      "inputs": [
        {
          "indexed": true,
          "internalType": "address",
          "name": "isuser",
          "type": "address"
        },
        {
          "indexed": false,
          "internalType": "string",
          "name": "IPFS",
          "type": "string"
        }
      ],
      "name": "PropertyRegister",
      "type": "event"
    },
    {
      "anonymous": false,
      "inputs": [
        {
          "indexed": true,
          "internalType": "address",
          "name": "isuser",
          "type": "address"
        },
        {
          "indexed": false,
          "internalType": "string",
          "name": "id",
          "type": "string"
        }
      ],
      "name": "UserRegistered",
      "type": "event"
    },
    {
      "anonymous": false,
      "inputs": [
        {
          "indexed": true,
          "internalType": "uint256",
          "name": "property",
          "type": "uint256"
        },
        {
          "indexed": true,
          "internalType": "address",
          "name": "user",
          "type": "address"
        },
        {
          "indexed": true,
          "internalType": "string",
          "name": "document",
          "type": "string"
        }
      ],
      "name": "propertyIssued",
      "type": "event"
    },
    {
      "constant": false,
      "inputs": [
        {
          "internalType": "string",
          "name": "_user",
          "type": "string"
        }
      ],
      "name": "registerUser",
      "outputs": [],
      "payable": false,
      "stateMutability": "nonpayable",
      "type": "function"
    },
    {
      "constant": true,
      "inputs": [],
      "name": "getUser",
      "outputs": [
        {
          "internalType": "string",
          "name": "",
          "type": "string"
        }
      ],
      "payable": false,
      "stateMutability": "view",
      "type": "function"
    },
    {
      "constant": false,
      "inputs": [
        {
          "internalType": "string",
          "name": "_uuid",
          "type": "string"
        },
        {
          "internalType": "string",
          "name": "_img_uid",
          "type": "string"
        },
        {
          "internalType": "string",
          "name": "_name",
          "type": "string"
        },
        {
          "internalType": "uint256",
          "name": "_value",
          "type": "uint256"
        }
      ],
      "name": "emitRegisterProperty",
      "outputs": [],
      "payable": false,
      "stateMutability": "nonpayable",
      "type": "function"
    },
    {
      "constant": true,
      "inputs": [
        {
          "internalType": "uint256",
          "name": "_id",
          "type": "uint256"
        }
      ],
      "name": "getIdProperty",
      "outputs": [
        {
          "internalType": "address",
          "name": "direccion",
          "type": "address"
        },
        {
          "internalType": "bool",
          "name": "visible",
          "type": "bool"
        },
        {
          "internalType": "uint256",
          "name": "price",
          "type": "uint256"
        },
        {
          "internalType": "string",
          "name": "ipfs",
          "type": "string"
        },
        {
          "internalType": "string",
          "name": "name",
          "type": "string"
        },
        {
          "internalType": "string",
          "name": "document",
          "type": "string"
        }
      ],
      "payable": false,
      "stateMutability": "view",
      "type": "function"
    },
    {
      "constant": true,
      "inputs": [],
      "name": "getProperty",
      "outputs": [
        {
          "internalType": "uint256[]",
          "name": "",
          "type": "uint256[]"
        }
      ],
      "payable": false,
      "stateMutability": "view",
      "type": "function"
    },
    {
      "constant": false,
      "inputs": [
        {
          "internalType": "bool",
          "name": "_visible",
          "type": "bool"
        },
        {
          "internalType": "uint256",
          "name": "_id",
          "type": "uint256"
        }
      ],
      "name": "onVisible",
      "outputs": [],
      "payable": false,
      "stateMutability": "nonpayable",
      "type": "function"
    },
    {
      "constant": false,
      "inputs": [
        {
          "internalType": "uint256",
          "name": "_id",
          "type": "uint256"
        },
        {
          "internalType": "uint256",
          "name": "_newPrice",
          "type": "uint256"
        }
      ],
      "name": "onUpdatePrice",
      "outputs": [],
      "payable": false,
      "stateMutability": "nonpayable",
      "type": "function"
    }
  ],
  "bytecode": "0x608060405234801561001057600080fd5b50611cc2806100206000396000f3fe608060405234801561001057600080fd5b506004361061007d5760003560e01c8063832880e71161005b578063832880e71461038f5780638aa130e31461041257806392845a6c1461044a578063b6446fd3146104845761007d565b8063077510701461008257806360673857146100e1578063704f1b94146102d4575b600080fd5b61008a610648565b6040518080602001828103825283818151815260200191508051906020019060200280838360005b838110156100cd5780820151818401526020810190506100b2565b505050509050019250505060405180910390f35b6102d2600480360360808110156100f757600080fd5b810190808035906020019064010000000081111561011457600080fd5b82018360208201111561012657600080fd5b8035906020019184600183028401116401000000008311171561014857600080fd5b91908080601f016020809104026020016040519081016040528093929190818152602001838380828437600081840152601f19601f820116905080830192505050505050509192919290803590602001906401000000008111156101ab57600080fd5b8201836020820111156101bd57600080fd5b803590602001918460018302840111640100000000831117156101df57600080fd5b91908080601f016020809104026020016040519081016040528093929190818152602001838380828437600081840152601f19601f8201169050808301925050505050505091929192908035906020019064010000000081111561024257600080fd5b82018360208201111561025457600080fd5b8035906020019184600183028401116401000000008311171561027657600080fd5b91908080601f016020809104026020016040519081016040528093929190818152602001838380828437600081840152601f19601f820116905080830192505050505050509192919290803590602001909291905050506106dd565b005b61038d600480360360208110156102ea57600080fd5b810190808035906020019064010000000081111561030757600080fd5b82018360208201111561031957600080fd5b8035906020019184600183028401116401000000008311171561033b57600080fd5b91908080601f016020809104026020016040519081016040528093929190818152602001838380828437600081840152601f19601f820116905080830192505050505050509192919290505050610a72565b005b610397610c9a565b6040518080602001828103825283818151815260200191508051906020019080838360005b838110156103d75780820151818401526020810190506103bc565b50505050905090810190601f1680156104045780820380516001836020036101000a031916815260200191505b509250505060405180910390f35b6104486004803603604081101561042857600080fd5b810190808035906020019092919080359060200190929190505050610d79565b005b6104826004803603604081101561046057600080fd5b810190808035151590602001909291908035906020019092919050505061126f565b005b6104b06004803603602081101561049a57600080fd5b810190808035906020019092919050505061176b565b604051808773ffffffffffffffffffffffffffffffffffffffff1673ffffffffffffffffffffffffffffffffffffffff16815260200186151515158152602001858152602001806020018060200180602001848103845287818151815260200191508051906020019080838360005b8381101561053a57808201518184015260208101905061051f565b50505050905090810190601f1680156105675780820380516001836020036101000a031916815260200191505b50848103835286818151815260200191508051906020019080838360005b838110156105a0578082015181840152602081019050610585565b50505050905090810190601f1680156105cd5780820380516001836020036101000a031916815260200191505b50848103825285818151815260200191508051906020019080838360005b838110156106065780820151818401526020810190506105eb565b50505050905090810190601f1680156106335780820380516001836020036101000a031916815260200191505b50995050505050505050505060405180910390f35b6060600660003373ffffffffffffffffffffffffffffffffffffffff1673ffffffffffffffffffffffffffffffffffffffff1681526020019081526020016000208054806020026020016040519081016040528092919081815260200182805480156106d357602002820191906000526020600020905b8154815260200190600101908083116106bf575b5050505050905090565b60011515600360003373ffffffffffffffffffffffffffffffffffffffff1673ffffffffffffffffffffffffffffffffffffffff16815260200190815260200160002060009054906101000a900460ff161515146107a3576040517f08c379a00000000000000000000000000000000000000000000000000000000081526004018080602001828103825260168152602001807f45737465207573756172696f206e6f206578697374650000000000000000000081525060200191505060405180910390fd5b6107ab611b1a565b60008060008154600101919050819055905033826000019073ffffffffffffffffffffffffffffffffffffffff16908173ffffffffffffffffffffffffffffffffffffffff1681525050600082602001901515908115158152505082826040018181525050848260600181905250838260800181905250858260a00181905250816005600083815260200190815260200160002060008201518160000160006101000a81548173ffffffffffffffffffffffffffffffffffffffff021916908373ffffffffffffffffffffffffffffffffffffffff16021790555060208201518160000160146101000a81548160ff0219169083151502179055506040820151816001015560608201518160020190805190602001906108cc929190611b68565b5060808201518160030190805190602001906108e9929190611b68565b5060a0820151816004019080519060200190610906929190611b68565b50905050336004600083815260200190815260200160002060006101000a81548173ffffffffffffffffffffffffffffffffffffffff021916908373ffffffffffffffffffffffffffffffffffffffff160217905550600660003373ffffffffffffffffffffffffffffffffffffffff1673ffffffffffffffffffffffffffffffffffffffff168152602001908152602001600020819080600181540180825580915050906001820390600052602060002001600090919290919091505550856040518082805190602001908083835b602083106109f957805182526020820191506020810190506020830392506109d6565b6001836020036101000a03801982511681845116808217855250505050505090500191505060405180910390203373ffffffffffffffffffffffffffffffffffffffff16827f9fc2dd3f43c9995b116d986916a402a064d24b251b8873da4513e5f74a6db17f60405160405180910390a4505050505050565b60001515600360003373ffffffffffffffffffffffffffffffffffffffff1673ffffffffffffffffffffffffffffffffffffffff16815260200190815260200160002060009054906101000a900460ff16151514610b38576040517f08c379a000000000000000000000000000000000000000000000000000000000815260040180806020018281038252601f8152602001807f45737465207573756172696f2079612065737461207265676973747261646f0081525060200191505060405180910390fd5b80600260003373ffffffffffffffffffffffffffffffffffffffff1673ffffffffffffffffffffffffffffffffffffffff1681526020019081526020016000209080519060200190610b8b929190611be8565b506001600360003373ffffffffffffffffffffffffffffffffffffffff1673ffffffffffffffffffffffffffffffffffffffff16815260200190815260200160002060006101000a81548160ff0219169083151502179055503373ffffffffffffffffffffffffffffffffffffffff167f48cac28ad4dc618e15f4c2dd5e97751182f166de97b25618318b2112aa951a2f826040518080602001828103825283818151815260200191508051906020019080838360005b83811015610c5d578082015181840152602081019050610c42565b50505050905090810190601f168015610c8a5780820380516001836020036101000a031916815260200191505b509250505060405180910390a250565b6060600260003373ffffffffffffffffffffffffffffffffffffffff1673ffffffffffffffffffffffffffffffffffffffff1681526020019081526020016000208054600181600116156101000203166002900480601f016020809104026020016040519081016040528092919081815260200182805460018160011615610100020316600290048015610d6f5780601f10610d4457610100808354040283529160200191610d6f565b820191906000526020600020905b815481529060010190602001808311610d5257829003601f168201915b5050505050905090565b6004600083815260200190815260200160002060009054906101000a900473ffffffffffffffffffffffffffffffffffffffff163373ffffffffffffffffffffffffffffffffffffffff168173ffffffffffffffffffffffffffffffffffffffff1614610e4e576040517f08c379a00000000000000000000000000000000000000000000000000000000081526004018080602001828103825260038152602001807f343033000000000000000000000000000000000000000000000000000000000081525060200191505060405180910390fd5b610e56611b1a565b600560008581526020019081526020016000206040518060c00160405290816000820160009054906101000a900473ffffffffffffffffffffffffffffffffffffffff1673ffffffffffffffffffffffffffffffffffffffff1673ffffffffffffffffffffffffffffffffffffffff1681526020016000820160149054906101000a900460ff1615151515815260200160018201548152602001600282018054600181600116156101000203166002900480601f016020809104026020016040519081016040528092919081815260200182805460018160011615610100020316600290048015610f885780601f10610f5d57610100808354040283529160200191610f88565b820191906000526020600020905b815481529060010190602001808311610f6b57829003601f168201915b50505050508152602001600382018054600181600116156101000203166002900480601f01602080910402602001604051908101604052809291908181526020018280546001816001161561010002031660029004801561102a5780601f10610fff5761010080835404028352916020019161102a565b820191906000526020600020905b81548152906001019060200180831161100d57829003601f168201915b50505050508152602001600482018054600181600116156101000203166002900480601f0160208091040260200160405190810160405280929190818152602001828054600181600116156101000203166002900480156110cc5780601f106110a1576101008083540402835291602001916110cc565b820191906000526020600020905b8154815290600101906020018083116110af57829003601f168201915b505050505081525050905082816040018181525050806005600086815260200190815260200160002060008201518160000160006101000a81548173ffffffffffffffffffffffffffffffffffffffff021916908373ffffffffffffffffffffffffffffffffffffffff16021790555060208201518160000160146101000a81548160ff021916908315150217905550604082015181600101556060820151816002019080519060200190611182929190611b68565b50608082015181600301908051906020019061119f929190611b68565b5060a08201518160040190805190602001906111bc929190611b68565b509050508060a001516040518082805190602001908083835b602083106111f857805182526020820191506020810190506020830392506111d5565b6001836020036101000a03801982511681845116808217855250505050505090500191505060405180910390203373ffffffffffffffffffffffffffffffffffffffff16857f9fc2dd3f43c9995b116d986916a402a064d24b251b8873da4513e5f74a6db17f60405160405180910390a450505050565b6004600082815260200190815260200160002060009054906101000a900473ffffffffffffffffffffffffffffffffffffffff163373ffffffffffffffffffffffffffffffffffffffff168173ffffffffffffffffffffffffffffffffffffffff1614611344576040517f08c379a00000000000000000000000000000000000000000000000000000000081526004018080602001828103825260038152602001807f343033000000000000000000000000000000000000000000000000000000000081525060200191505060405180910390fd5b61134c611b1a565b600560008481526020019081526020016000206040518060c00160405290816000820160009054906101000a900473ffffffffffffffffffffffffffffffffffffffff1673ffffffffffffffffffffffffffffffffffffffff1673ffffffffffffffffffffffffffffffffffffffff1681526020016000820160149054906101000a900460ff1615151515815260200160018201548152602001600282018054600181600116156101000203166002900480601f01602080910402602001604051908101604052809291908181526020018280546001816001161561010002031660029004801561147e5780601f106114535761010080835404028352916020019161147e565b820191906000526020600020905b81548152906001019060200180831161146157829003601f168201915b50505050508152602001600382018054600181600116156101000203166002900480601f0160208091040260200160405190810160405280929190818152602001828054600181600116156101000203166002900480156115205780601f106114f557610100808354040283529160200191611520565b820191906000526020600020905b81548152906001019060200180831161150357829003601f168201915b50505050508152602001600482018054600181600116156101000203166002900480601f0160208091040260200160405190810160405280929190818152602001828054600181600116156101000203166002900480156115c25780601f10611597576101008083540402835291602001916115c2565b820191906000526020600020905b8154815290600101906020018083116115a557829003601f168201915b505050505081525050905083816020019015159081151581525050806005600085815260200190815260200160002060008201518160000160006101000a81548173ffffffffffffffffffffffffffffffffffffffff021916908373ffffffffffffffffffffffffffffffffffffffff16021790555060208201518160000160146101000a81548160ff02191690831515021790555060408201518160010155606082015181600201908051906020019061167e929190611b68565b50608082015181600301908051906020019061169b929190611b68565b5060a08201518160040190805190602001906116b8929190611b68565b509050508060a001516040518082805190602001908083835b602083106116f457805182526020820191506020810190506020830392506116d1565b6001836020036101000a03801982511681845116808217855250505050505090500191505060405180910390203373ffffffffffffffffffffffffffffffffffffffff16847f9fc2dd3f43c9995b116d986916a402a064d24b251b8873da4513e5f74a6db17f60405160405180910390a450505050565b600080600060608060606004600088815260200190815260200160002060009054906101000a900473ffffffffffffffffffffffffffffffffffffffff163373ffffffffffffffffffffffffffffffffffffffff168173ffffffffffffffffffffffffffffffffffffffff161461184a576040517f08c379a00000000000000000000000000000000000000000000000000000000081526004018080602001828103825260038152602001807f343033000000000000000000000000000000000000000000000000000000000081525060200191505060405180910390fd5b611852611b1a565b600560008a81526020019081526020016000206040518060c00160405290816000820160009054906101000a900473ffffffffffffffffffffffffffffffffffffffff1673ffffffffffffffffffffffffffffffffffffffff1673ffffffffffffffffffffffffffffffffffffffff1681526020016000820160149054906101000a900460ff1615151515815260200160018201548152602001600282018054600181600116156101000203166002900480601f0160208091040260200160405190810160405280929190818152602001828054600181600116156101000203166002900480156119845780601f1061195957610100808354040283529160200191611984565b820191906000526020600020905b81548152906001019060200180831161196757829003601f168201915b50505050508152602001600382018054600181600116156101000203166002900480601f016020809104026020016040519081016040528092919081815260200182805460018160011615610100020316600290048015611a265780601f106119fb57610100808354040283529160200191611a26565b820191906000526020600020905b815481529060010190602001808311611a0957829003601f168201915b50505050508152602001600482018054600181600116156101000203166002900480601f016020809104026020016040519081016040528092919081815260200182805460018160011615610100020316600290048015611ac85780601f10611a9d57610100808354040283529160200191611ac8565b820191906000526020600020905b815481529060010190602001808311611aab57829003601f168201915b505050505081525050905080600001519750806020015196508060400151955080606001519450806080015193508060a001519250878787878787975097509750975097509750505091939550919395565b6040518060c00160405280600073ffffffffffffffffffffffffffffffffffffffff168152602001600015158152602001600081526020016060815260200160608152602001606081525090565b828054600181600116156101000203166002900490600052602060002090601f016020900481019282601f10611ba957805160ff1916838001178555611bd7565b82800160010185558215611bd7579182015b82811115611bd6578251825591602001919060010190611bbb565b5b509050611be49190611c68565b5090565b828054600181600116156101000203166002900490600052602060002090601f016020900481019282601f10611c2957805160ff1916838001178555611c57565b82800160010185558215611c57579182015b82811115611c56578251825591602001919060010190611c3b565b5b509050611c649190611c68565b5090565b611c8a91905b80821115611c86576000816000905550600101611c6e565b5090565b9056fea265627a7a72315820bd185a1b781bcc1389fa81caf3fb83822e36403be755b102aae4342f992c85d364736f6c63430005100032",
  "source": "// SPDX-License-Identifier: MIT\npragma solidity >=0.4.22 <0.9.0;\n\ncontract AssetT{\n    //counter id\n    uint id_prop;\n    \n    //Structs\n    /**struct for propertis */\n    struct Property{\n        address user;\n        bool visible;\n        uint256 price;\n        string ipfs_hash;\n        string name;\n        string document_hash;\n    }\n\n\n\n    mapping(address => Property[]) properties;\n    mapping(address => string) user;\n    mapping(address => bool) isUser;\n    mapping(uint => address) issuerProperty;\n    mapping(uint => Property) propertyIdentifier;\n    mapping(address => uint[]) issuerPropertyRegister;\n    \n    event UserRegistered(address indexed isuser, string id);\n    event PropertyRegister(address indexed isuser, string IPFS);\n    event propertyIssued(uint indexed property,address indexed user, string indexed document);\n    \n    /* Modificadores */\n    /** check if a user exists */\n     modifier isRegisterUser(){\n         require((isUser[msg.sender] == false), \"Este usuario ya esta registrado\");\n         _;\n     }//works\n     \n     modifier isUserActive(){\n         require(isUser[msg.sender] == true,\"Este usuario no existe\");\n         _;\n     }//works\n     /**authorization */\n     modifier isAutorize(address owner){\n         require(owner == msg.sender, \"403\");\n         _;\n     }//works\n     \n    /**register a user, an identifier is required */\n    function registerUser(string memory _user) public isRegisterUser(){\n        user[msg.sender] = _user;\n        isUser[msg.sender] = true;\n        emit UserRegistered(msg.sender, _user);\n    }//works\n    /**function returned by a user */\n    function getUser() public view returns(string memory){\n        return user[msg.sender];\n    }//works\n    \n    /*function registerProperty(string memory _uuid) public {\n        require(isUser[msg.sender] == true,\"Issuer not registered to register a certificate\");\n        issuerProperty[_uuid] = msg.sender;\n        emit PropertyRegister(msg.sender, _uuid);\n    }*/\n    /**register a property, requires a hash of ipfs, name and price */\n    function emitRegisterProperty(string memory _uuid, string memory _img_uid,string memory _name,uint256 _value) public isUserActive(){\n        \n        Property memory proper;\n        uint id = ++id_prop;\n        \n         proper.user = msg.sender;\n         proper.visible = false;\n         proper.price = _value;\n         proper.ipfs_hash = _img_uid;\n         proper.name = _name;\n         proper.document_hash = _uuid;\n         propertyIdentifier[id] = proper;\n         issuerProperty[id]=msg.sender;\n         issuerPropertyRegister[msg.sender].push(id);\n         emit propertyIssued(id,msg.sender, _uuid);\n        \n    }//funciona\n    \n    /**get a property by id, the function is validated with authorization */\n    function getIdProperty(uint _id) public view isAutorize(issuerProperty[_id]) \n      returns(address  direccion,bool visible,uint256 price, string memory ipfs,string memory name, string memory document){\n       Property memory prop = propertyIdentifier[_id];\n    \n       direccion = prop.user;\n       visible = prop.visible;\n       price = prop.price;\n       ipfs = prop.ipfs_hash;\n       name = prop.name;\n       document = prop.document_hash;\n        \n       return (direccion,visible,price,ipfs,name,document);\n    }//funciona\n\n    /**get an array of properties for a user */\n    function getProperty() public view returns(uint[] memory){\n        return issuerPropertyRegister[msg.sender];\n    }//funciona\n    /**update the visibility of a property */\n    function onVisible(bool _visible,uint _id) public isAutorize(issuerProperty[_id]){\n        Property memory temp = propertyIdentifier[_id];\n        temp.visible = _visible;\n        propertyIdentifier[_id] = temp;\n         emit propertyIssued(_id,msg.sender, temp.document_hash);\n    }//funciona\n    /**update the price of a property */\n    function onUpdatePrice(uint _id, uint256 _newPrice) public isAutorize(issuerProperty[_id]){\n        Property memory temp = propertyIdentifier[_id];\n        temp.price = _newPrice;\n        propertyIdentifier[_id] = temp;\n        emit propertyIssued(_id,msg.sender, temp.document_hash);\n    }//funciona\n    \n    /*function payProperty(uint _id,string memory _newipfs) public payable isAutorize(issuerProperty[_id]){\n        address owner = issuerProperty[_id];\n        Property memory temp = getIdProperty(_id);\n        \n        \n        uint [] memory issuer =  issuerPropertyRegister[owner];\n        temp.user = msg.sender;\n        temp.visible = false;\n        temp.document_hash = _newipfs;\n        propertyIdentifier[_id]=temp;\n        issuer[_id]=0;\n        issuerProperty[_id]=msg.sender;\n        issuerPropertyRegister[msg.sender].push(_id);\n        emit propertyIssued(_id,msg.sender, temp.document_hash);\n    }//no funciona, investigar que tranza con esta funcion*/\n    \n    \n     \n     \n}",
  "sourcePath": "/home/isaid/proyectos/blockchain-developer-bootcamp-final-project/contracts/AssetT.sol",
  "compiler": {
    "name": "solc",
    "version": "0.5.16+commit.9c3226ce.Emscripten.clang"
  },
  "schemaVersion": "3.4.3",
  "updatedAt": "2021-11-23T04:05:05.093Z",
  "networkType": "ethereum",
  "devdoc": {
    "methods": {}
  },
  "userdoc": {
    "methods": {
      "emitRegisterProperty(string,string,string,uint256)": {
        "notice": "register a property, requires a hash of ipfs, name and price "
      },
      "getIdProperty(uint256)": {
        "notice": "get a property by id, the function is validated with authorization "
      },
      "getProperty()": {
        "notice": "get an array of properties for a user "
      },
      "getUser()": {
        "notice": "function returned by a user "
      },
      "onUpdatePrice(uint256,uint256)": {
        "notice": "update the price of a property "
      },
      "onVisible(bool,uint256)": {
        "notice": "update the visibility of a property "
      },
      "registerUser(string)": {
        "notice": "register a user, an identifier is required "
      }
    }
  }
}